:020000000C945E
:1000020082000C94FF000C9420010C946B010C9460
:10001200B6010C9400000C9400000C9400000C94A7
:1000220000000C9400000C9400000C9400000C944E
:10003200D8000C9400000C9400000C9400000C9466
:1000420000000C9400000C9400000C9400000C942E
:1000520000000C9400000C9400000C9400000C941E
:1000620000000C9400000C9400000C9400000C940E
:1000720000000C9400000C9400000C9400000C94FE
:1000820000000C9400000C9400001027E8036400A8
:100092000A0001000010000110000100008E0000A3
:1000A200000000000000204D6963726F70726F6380
:1000B2006573736F720045646974696E672E2E2EC4
:1000C20020202020202020005B54494D455D5B25E7
:1000D20032643A2532643A2532645D0001002D4EC5
:1000E200414E00494E4600000A0004009E001000E6
:1000F2000005A80012001005B80001003905DE0055
:100102000000F894EE27ECBBF1E0F5BFE5BFE09309
:100112006C008DE0A2E0BB27ED938A95E9F780E0C1
:1001220090E1A0E0B1E0ED930197E9F7EAEEF0E0AB
:1001320085919591009761F0A591B59105901590E3
:10014200BF01F00105900D920197E1F7FB01F0CF9D
:100152008BBFEFEFEDBFE0E1EEBFC0E0D5E00C9466
:10016200B20010E0BF9AA79AAF98E0E0E1BBEFE0DF
:10017200E9BFEAEAE0936A00ECE0EEBDE9E6F8E105
:10018200FBBDEABDE0E1E7BFE0E8EFBF54D110E01C
:10019200183040F4A62DEFD0A82DEDD0AA2DEBD02B
:1001A2001F5FF6CFA5E0B0E0A1D3F1CFFFCF1DD303
:1001B200E0912305EF5FE0932305A0912305AA3088
:1001C200B0F0E0E0E0932305A0912205AF5FA09399
:1001D2002205AC3360F0E0932205C394EBE3EC1507
:1001E20030F4CC24D394E7E1ED1508F4DD24DFD01C
:1001F200A0EC48D1A0E0B5E034D15EC0F6D2E091E7
:100202002405E03029F4A0EC3DD1A0E1B5E029D1EC
:10021200E0E0E7BFE0912405EF5FE0932405DFD043
:10022200A0912405A73051F4E0E0E0932405A1E079
:1002320029D1ACE027D1BBD0E0E1E7BF3DC0D5D2A8
:10024200E7B7E030C9F5A0912405A13029F4E09187
:100252002205EF5FE0932205A0912405A23029F444
:10026200E0912205E65FE0932205A0912405A330E8
:1002720009F4C394A0912405A43011F4EAE0CE0E4F
:10028200A0912405A53009F4D394A0912405A630A9
:1002920011F4EAE0DE0EA0912205AC3318F0E0E0A2
:1002A200E0932205EBE3EC1508F4CC24E8E1ED152C
:1002B20008F4DD247CD093D0E991EFBFF991E99164
:1002C200B991A9919991899179916991F99019902E
:1002D20009901895EA93FA93EFB7EA934394E1E011
:1002E200E41529F4E4E6F0E03F018DD239C0E2E002
:1002F200E41521F46624772486D232C0E3E0E415C3
:1003020029F4EFEFF0E03F0184D22AC0E4E0E415E3
:1003120041F46624772488249924EFEFF0E05F010A
:100322001FC0E5E0E41549F466247724EFE5F0E028
:100332004F01EFEFF0E05F0113C0E6E0E41549F48E
:1003420066247724EFEFF0E04F01EDEDF0E05F017E
:1003520007C0E7E0E41521F4662477245AD2442446
:10036200E991EFBFF991E9911895AF9B02C0AF985F
:1003720001C0AF9A18951A930A930A2F10E0183009
:1003820098F407FF0AC0C79A0000000000000000AE
:10039200000000000000000003C0C79A0000000037
:1003A200C798000F1F5FEBCF099119910895A2E042
:1003B20069D0E5E2F5E0FA93EA93EAECF0E0FA9329
:1003C200EA93ED2D2BD2EC2D29D2E091220526D2F3
:1003D2008CE0C1D16096A5E2B5E043D00895AFE0CC
:1003E20051D0A0912405A13011F4A52D4BD0A0919C
:1003F2002405A23019F4A52DA15044D0A0912405C2
:10040200A33019F4A52DA3503DD0A0912405A4300A
:1004120019F4A52DA45036D0A0912405A53019F4C5
:10042200A52DA6502FD0A0912405A63019F4A52DF4
:10043200A75028D00895EFEFEABBDA98AFE0F3D1E6
:10044200A5E0F1D180E991E00197F1F7A0E21AD09D
:10045200A8E218D0ACE016D0A1E014D0A6E012D0E9
:1004620008951FD29D0100E010E08901D801EC91AE
:10047200E03029F00F5F1F4FAC9109D0F7CF18D2AF
:1004820024960895D4D1D898D9D1D89804C0CFD180
:10049200D89AD4D1D89AD99885E08A95F1F7DA9A80
:1004A20085E08A95F1F7DA9819910895A2E0B0E013
:1004B2001DD20895F4D19D015E8112960AD2309721
:1004C200E1F0D901149605D28F01309759F002302C
:1004D200E0E01E0760F0F80131978F01D901149610
:1004E200ED93FC93D9011296B7D131975083D9017C
:1004F200F0D1FF230AF0B0D105C0D901EFEFFFEF31
:10050200ED93FC93D3D127960895BA93AA93269795
:10051200C6D110E0AC85BD85E0E0F0E0ED93FC9340
:10052200EA89FB893196EA8BFB8B3197E4912E2F76
:10053200E03009F409C1E12FE03031F4253211F441
:1005420011E001C08FD1FFC0E130A1F4253211F4D6
:1005520089D1F8C012E040E000E02D3211F401E050
:10056200F2C02B3211F44BE2EEC0203211F440E221
:10057200EAC002C0E23039F450E013E0203311F453
:100582000068E1C003C0E33009F0DDC0203310F0A1
:100592002A3308F007C0AAE05A9F502DE22FE053F9
:1005A2005E0FD1C0E22FE33639F463D1E889F989CD
:1005B200A481AA9364D1C6C0E33729F45AD165D184
:1005C200FBD01E2F07C0E03749F453D15ED100D1D2
:1005D2001E2F086002600F7730E038C0E43611F059
:1005E200E93611F4046002C0E53731F4ECE8F0E0DA
:1005F200EE83FF8315E00CC0E83511F4086003C0F8
:10060200E83709F09FC0E6E9F0E0EE83FF8314E0EB
:1006120002FF15C02ED1A889B9891496ED91FD91DA
:10062200EA87FB87AB85AA2322F44FD1EA87FB87AF
:100632004DE2403011F01F5F01C00B7F07C019D19E
:10064200A889B989149645D1EA87FB8700FD10C0B5
:10065200151770F407FF08C002FF04C00B7F242F98
:10066200115001C020E301C020E2FCD05150F0CF74
:10067200312F01FF16C0303099F003FF06C0EE8122
:10068200FF812591EE83FF8305C0AE81BF812D914D
:10069200AE83BF83E7D0503009F051503150EBCFD9
:1006A20048C020E3EE81FF8118D1E887F987EE8107
:1006B200FF813296EE83FF83E885F985AA85BB85A3
:1006C200AE17BF0750F02F5FA885B985EA85FB8575
:1006D200EA1BFB0BEA87FB87EFCF2A3328F003FFE5
:1006E20002C0295F01C0295D04FD19C0213320F435
:1006F200A885B985119709F409C0531710F000FFB6
:1007020001C011C020E207FF0AC020E3006102FF1E
:1007120006C00B7F4A93B3D0503009F05150A2D09B
:10072200503009F051503150A885B985129708F020
:10073200B8CF00FF07C0503029F05150E0E2EA93F1
:100742009ED0F9CF10E0ECCEAC85BD85ED91FD9148
:10075200ADD064960895FF92F82E2697A0D0FE01A0
:10076200ACD046855785042E052A19F4EFEFFFEF2A
:100772001FC0DE011896A5D08D0148875987E0E099
:10078200EA87EB87DE011C969CD0ED91FD91FA93EE
:10079200EA931A930A93EBE5F2E0FA93EA93DE0105
:1007A2001C96B3DE9F01A885B985E0E0EC93F901C0
:1007B2007DD02C96FF900895BA93AA93A991B991EE
:1007C200EE27FF276D91662311F03196FBCF089536
:1007D200BA93AA93AA27BB27E991F9910590002021
:1007E20011F01196FBCFFD0108950A921A92FA9226
:1007F2006A937A938A939A93AA93BA93EA93FA930F
:10080200EFB7EA930895EFEFF0E04F01AA24BB247B
:10081200089588249924AA24BB240895FF276627D3
:1008220077275FD00895B0E061D0A0E22BCE1A9373
:100832001A2F3CDEE12FE07FEBBB0895D99885E0CB
:100842008A95F1F7DA9A85E08A95F1F7DA98E12F3D
:10085200E295E07FEBBB0895ED91FD913196FE9319
:10086200EE9308952A93AD85BE85EF85F8890995A3
:100872000895E889F9893497E88BF98B0895AD8555
:10088200BE85EF85F88909950895A889B9891496D6
:10089200ED91FD91EE83FF83AE81BF8108955A935E
:1008A2004A933A932A931A930A9308955D814C814D
:1008B2003B812A811981088108950024EF0DF01DE2
:1008C20008950024AF0DB01D0895F195E195F04013
:1008D2000895ED91FC91119708950590F491E02D02
:1008E20008957A936A93FA93EA930895109639F0E9
:1008F200A89580EA9FE00197F1F71197C9F708954B
:00000001FF
